{
  "contractName": "CaptureTheFlag",
  "abi": [
    {
      "inputs": [
        {
          "internalType": "address",
          "name": "_trustedForwarder",
          "type": "address"
        }
      ],
      "stateMutability": "nonpayable",
      "type": "constructor"
    },
    {
      "anonymous": false,
      "inputs": [
        {
          "indexed": false,
          "internalType": "address",
          "name": "previousHolder",
          "type": "address"
        },
        {
          "indexed": false,
          "internalType": "address",
          "name": "currentHolder",
          "type": "address"
        }
      ],
      "name": "FlagCaptured",
      "type": "event"
    },
    {
      "inputs": [],
      "name": "currentHolder",
      "outputs": [
        {
          "internalType": "address",
          "name": "",
          "type": "address"
        }
      ],
      "stateMutability": "view",
      "type": "function",
      "constant": true
    },
    {
      "inputs": [
        {
          "internalType": "address",
          "name": "forwarder",
          "type": "address"
        }
      ],
      "name": "isTrustedForwarder",
      "outputs": [
        {
          "internalType": "bool",
          "name": "",
          "type": "bool"
        }
      ],
      "stateMutability": "view",
      "type": "function",
      "constant": true
    },
    {
      "inputs": [],
      "name": "trustedForwarder",
      "outputs": [
        {
          "internalType": "address",
          "name": "",
          "type": "address"
        }
      ],
      "stateMutability": "view",
      "type": "function",
      "constant": true
    },
    {
      "inputs": [],
      "name": "versionRecipient",
      "outputs": [
        {
          "internalType": "string",
          "name": "",
          "type": "string"
        }
      ],
      "stateMutability": "view",
      "type": "function",
      "constant": true
    },
    {
      "inputs": [],
      "name": "captureTheFlag",
      "outputs": [],
      "stateMutability": "nonpayable",
      "type": "function"
    }
  ],
  "bytecode": "0x60806040526000600160006101000a81548173ffffffffffffffffffffffffffffffffffffffff021916908373ffffffffffffffffffffffffffffffffffffffff1602179055506040518060400160405280600581526020017f322e322e3000000000000000000000000000000000000000000000000000000081525060029080519060200190610091929190610118565b5034801561009e57600080fd5b5060405161084f38038061084f83398181016040528101906100c0919061021e565b6100cf816100d560201b60201c565b506102ac565b806000806101000a81548173ffffffffffffffffffffffffffffffffffffffff021916908373ffffffffffffffffffffffffffffffffffffffff16021790555050565b8280546101249061027a565b90600052602060002090601f016020900481019282610146576000855561018d565b82601f1061015f57805160ff191683800117855561018d565b8280016001018555821561018d579182015b8281111561018c578251825591602001919060010190610171565b5b50905061019a919061019e565b5090565b5b808211156101b757600081600090555060010161019f565b5090565b600080fd5b600073ffffffffffffffffffffffffffffffffffffffff82169050919050565b60006101eb826101c0565b9050919050565b6101fb816101e0565b811461020657600080fd5b50565b600081519050610218816101f2565b92915050565b600060208284031215610234576102336101bb565b5b600061024284828501610209565b91505092915050565b7f4e487b7100000000000000000000000000000000000000000000000000000000600052602260045260246000fd5b6000600282049050600182168061029257607f821691505b602082108114156102a6576102a561024b565b5b50919050565b610594806102bb6000396000f3fe608060405234801561001057600080fd5b50600436106100565760003560e01c80624225b81461005b578063239e26f214610079578063486ff0cd14610083578063572b6c05146100a15780637da0a877146100d1575b600080fd5b6100636100ef565b604051610070919061036a565b60405180910390f35b610081610115565b005b61008b6101e2565b604051610098919061041e565b60405180910390f35b6100bb60048036038101906100b69190610471565b610270565b6040516100c891906104b9565b60405180910390f35b6100d96102c9565b6040516100e6919061036a565b60405180910390f35b600160009054906101000a900473ffffffffffffffffffffffffffffffffffffffff1681565b6000600160009054906101000a900473ffffffffffffffffffffffffffffffffffffffff1690506101446102f2565b600160006101000a81548173ffffffffffffffffffffffffffffffffffffffff021916908373ffffffffffffffffffffffffffffffffffffffff1602179055507facc718a11fbc93a22905740808767480f9efd07b1c0b0128095790cd1440048d81600160009054906101000a900473ffffffffffffffffffffffffffffffffffffffff166040516101d79291906104d4565b60405180910390a150565b600280546101ef9061052c565b80601f016020809104026020016040519081016040528092919081815260200182805461021b9061052c565b80156102685780601f1061023d57610100808354040283529160200191610268565b820191906000526020600020905b81548152906001019060200180831161024b57829003601f168201915b505050505081565b60008060009054906101000a900473ffffffffffffffffffffffffffffffffffffffff1673ffffffffffffffffffffffffffffffffffffffff168273ffffffffffffffffffffffffffffffffffffffff16149050919050565b60008060009054906101000a900473ffffffffffffffffffffffffffffffffffffffff16905090565b6000601460003690501015801561030e575061030d33610270565b5b1561032257601436033560601c9050610326565b3390505b90565b600073ffffffffffffffffffffffffffffffffffffffff82169050919050565b600061035482610329565b9050919050565b61036481610349565b82525050565b600060208201905061037f600083018461035b565b92915050565b600081519050919050565b600082825260208201905092915050565b60005b838110156103bf5780820151818401526020810190506103a4565b838111156103ce576000848401525b50505050565b6000601f19601f8301169050919050565b60006103f082610385565b6103fa8185610390565b935061040a8185602086016103a1565b610413816103d4565b840191505092915050565b6000602082019050818103600083015261043881846103e5565b905092915050565b600080fd5b61044e81610349565b811461045957600080fd5b50565b60008135905061046b81610445565b92915050565b60006020828403121561048757610486610440565b5b60006104958482850161045c565b91505092915050565b60008115159050919050565b6104b38161049e565b82525050565b60006020820190506104ce60008301846104aa565b92915050565b60006040820190506104e9600083018561035b565b6104f6602083018461035b565b9392505050565b7f4e487b7100000000000000000000000000000000000000000000000000000000600052602260045260246000fd5b6000600282049050600182168061054457607f821691505b60208210811415610558576105576104fd565b5b5091905056fea2646970667358221220be372416a1c47194bb66c309c3892678e7a848ccdc100f5386421353f77e7b2364736f6c634300080a0033",
  "immutableReferences": {},
  "source": "/**\n * SPDX-License-Identifier:MIT\n */\npragma solidity 0.8.10;\n\nimport \"@opengsn/contracts/src/BaseRelayRecipient.sol\";\n\ncontract CaptureTheFlag is BaseRelayRecipient {\n\n    event FlagCaptured(address previousHolder, address currentHolder);\n\n    address public currentHolder = address(0);\n\n    \n    constructor(address _trustedForwarder) {\n        _setTrustedForwarder(_trustedForwarder);\n    } \n  \n\n    string public override versionRecipient = \"2.2.0\";\n\n    function captureTheFlag() external {\n        address previousHolder = currentHolder;\n\n        currentHolder = _msgSender();\n\n        emit FlagCaptured(previousHolder, currentHolder);\n    }\n}\n",
  "sourcePath": "/Users/peter/Development/Level1DAO/react-app-gasless/contracts/CaptureTheFlag.sol",
  "compiler": {
    "name": "solc",
    "version": "0.8.10+commit.fc410830.Emscripten.clang"
  },
  "schemaVersion": "3.4.3",
  "updatedAt": "2022-02-23T03:25:01.933Z",
  "networkType": "ethereum",
  "devdoc": {
    "kind": "dev",
    "methods": {},
    "version": 1
  },
  "userdoc": {
    "kind": "user",
    "methods": {
      "isTrustedForwarder(address)": {
        "notice": "return if the forwarder is trusted to forward relayed transactions to us. the forwarder is required to verify the sender's signature, and verify the call is not a replay."
      }
    },
    "version": 1
  }
}