{
  "contractName": "Level1Completion",
  "abi": [
    {
      "inputs": [
        {
          "internalType": "address",
          "name": "_trustedForwarder",
          "type": "address"
        }
      ],
      "stateMutability": "nonpayable",
      "type": "constructor"
    },
    {
      "anonymous": false,
      "inputs": [
        {
          "indexed": true,
          "internalType": "address",
          "name": "owner",
          "type": "address"
        },
        {
          "indexed": true,
          "internalType": "address",
          "name": "approved",
          "type": "address"
        },
        {
          "indexed": true,
          "internalType": "uint256",
          "name": "tokenId",
          "type": "uint256"
        }
      ],
      "name": "Approval",
      "type": "event"
    },
    {
      "anonymous": false,
      "inputs": [
        {
          "indexed": true,
          "internalType": "address",
          "name": "owner",
          "type": "address"
        },
        {
          "indexed": true,
          "internalType": "address",
          "name": "operator",
          "type": "address"
        },
        {
          "indexed": false,
          "internalType": "bool",
          "name": "approved",
          "type": "bool"
        }
      ],
      "name": "ApprovalForAll",
      "type": "event"
    },
    {
      "anonymous": false,
      "inputs": [
        {
          "indexed": true,
          "internalType": "address",
          "name": "from",
          "type": "address"
        },
        {
          "indexed": true,
          "internalType": "address",
          "name": "to",
          "type": "address"
        },
        {
          "indexed": true,
          "internalType": "uint256",
          "name": "tokenId",
          "type": "uint256"
        }
      ],
      "name": "Transfer",
      "type": "event"
    },
    {
      "inputs": [
        {
          "internalType": "address",
          "name": "to",
          "type": "address"
        },
        {
          "internalType": "uint256",
          "name": "tokenId",
          "type": "uint256"
        }
      ],
      "name": "approve",
      "outputs": [],
      "stateMutability": "nonpayable",
      "type": "function"
    },
    {
      "inputs": [
        {
          "internalType": "address",
          "name": "owner",
          "type": "address"
        }
      ],
      "name": "balanceOf",
      "outputs": [
        {
          "internalType": "uint256",
          "name": "",
          "type": "uint256"
        }
      ],
      "stateMutability": "view",
      "type": "function",
      "constant": true
    },
    {
      "inputs": [
        {
          "internalType": "uint256",
          "name": "tokenId",
          "type": "uint256"
        }
      ],
      "name": "getApproved",
      "outputs": [
        {
          "internalType": "address",
          "name": "",
          "type": "address"
        }
      ],
      "stateMutability": "view",
      "type": "function",
      "constant": true
    },
    {
      "inputs": [
        {
          "internalType": "address",
          "name": "owner",
          "type": "address"
        },
        {
          "internalType": "address",
          "name": "operator",
          "type": "address"
        }
      ],
      "name": "isApprovedForAll",
      "outputs": [
        {
          "internalType": "bool",
          "name": "",
          "type": "bool"
        }
      ],
      "stateMutability": "view",
      "type": "function",
      "constant": true
    },
    {
      "inputs": [
        {
          "internalType": "address",
          "name": "forwarder",
          "type": "address"
        }
      ],
      "name": "isTrustedForwarder",
      "outputs": [
        {
          "internalType": "bool",
          "name": "",
          "type": "bool"
        }
      ],
      "stateMutability": "view",
      "type": "function",
      "constant": true
    },
    {
      "inputs": [],
      "name": "name",
      "outputs": [
        {
          "internalType": "string",
          "name": "",
          "type": "string"
        }
      ],
      "stateMutability": "view",
      "type": "function",
      "constant": true
    },
    {
      "inputs": [
        {
          "internalType": "uint256",
          "name": "tokenId",
          "type": "uint256"
        }
      ],
      "name": "ownerOf",
      "outputs": [
        {
          "internalType": "address",
          "name": "",
          "type": "address"
        }
      ],
      "stateMutability": "view",
      "type": "function",
      "constant": true
    },
    {
      "inputs": [
        {
          "internalType": "address",
          "name": "from",
          "type": "address"
        },
        {
          "internalType": "address",
          "name": "to",
          "type": "address"
        },
        {
          "internalType": "uint256",
          "name": "tokenId",
          "type": "uint256"
        }
      ],
      "name": "safeTransferFrom",
      "outputs": [],
      "stateMutability": "nonpayable",
      "type": "function"
    },
    {
      "inputs": [
        {
          "internalType": "address",
          "name": "from",
          "type": "address"
        },
        {
          "internalType": "address",
          "name": "to",
          "type": "address"
        },
        {
          "internalType": "uint256",
          "name": "tokenId",
          "type": "uint256"
        },
        {
          "internalType": "bytes",
          "name": "_data",
          "type": "bytes"
        }
      ],
      "name": "safeTransferFrom",
      "outputs": [],
      "stateMutability": "nonpayable",
      "type": "function"
    },
    {
      "inputs": [
        {
          "internalType": "address",
          "name": "operator",
          "type": "address"
        },
        {
          "internalType": "bool",
          "name": "approved",
          "type": "bool"
        }
      ],
      "name": "setApprovalForAll",
      "outputs": [],
      "stateMutability": "nonpayable",
      "type": "function"
    },
    {
      "inputs": [
        {
          "internalType": "bytes4",
          "name": "interfaceId",
          "type": "bytes4"
        }
      ],
      "name": "supportsInterface",
      "outputs": [
        {
          "internalType": "bool",
          "name": "",
          "type": "bool"
        }
      ],
      "stateMutability": "view",
      "type": "function",
      "constant": true
    },
    {
      "inputs": [],
      "name": "symbol",
      "outputs": [
        {
          "internalType": "string",
          "name": "",
          "type": "string"
        }
      ],
      "stateMutability": "view",
      "type": "function",
      "constant": true
    },
    {
      "inputs": [
        {
          "internalType": "uint256",
          "name": "tokenId",
          "type": "uint256"
        }
      ],
      "name": "tokenURI",
      "outputs": [
        {
          "internalType": "string",
          "name": "",
          "type": "string"
        }
      ],
      "stateMutability": "view",
      "type": "function",
      "constant": true
    },
    {
      "inputs": [
        {
          "internalType": "address",
          "name": "from",
          "type": "address"
        },
        {
          "internalType": "address",
          "name": "to",
          "type": "address"
        },
        {
          "internalType": "uint256",
          "name": "tokenId",
          "type": "uint256"
        }
      ],
      "name": "transferFrom",
      "outputs": [],
      "stateMutability": "nonpayable",
      "type": "function"
    },
    {
      "inputs": [],
      "name": "trustedForwarder",
      "outputs": [
        {
          "internalType": "address",
          "name": "",
          "type": "address"
        }
      ],
      "stateMutability": "view",
      "type": "function",
      "constant": true
    },
    {
      "inputs": [],
      "name": "versionRecipient",
      "outputs": [
        {
          "internalType": "string",
          "name": "",
          "type": "string"
        }
      ],
      "stateMutability": "view",
      "type": "function",
      "constant": true
    },
    {
      "inputs": [
        {
          "internalType": "address",
          "name": "learner",
          "type": "address"
        },
        {
          "internalType": "string",
          "name": "Level1PoapURI",
          "type": "string"
        }
      ],
      "name": "awardCertificate",
      "outputs": [
        {
          "internalType": "uint256",
          "name": "",
          "type": "uint256"
        }
      ],
      "stateMutability": "nonpayable",
      "type": "function"
    }
  ],
  "bytecode": "0x60806040526040518060400160405280600581526020017f322e322e30000000000000000000000000000000000000000000000000000000815250600990805190602001906200005192919062000180565b503480156200005f57600080fd5b50604051620030de380380620030de83398181016040528101906200008591906200029a565b6040518060400160405280600c81526020017f4c31436f6d706c6574696f6e00000000000000000000000000000000000000008152506040518060400160405280600381526020017f4c3143000000000000000000000000000000000000000000000000000000000081525081600190805190602001906200010992919062000180565b5080600290805190602001906200012292919062000180565b50505062000136816200013d60201b60201c565b5062000331565b806000806101000a81548173ffffffffffffffffffffffffffffffffffffffff021916908373ffffffffffffffffffffffffffffffffffffffff16021790555050565b8280546200018e90620002fb565b90600052602060002090601f016020900481019282620001b25760008555620001fe565b82601f10620001cd57805160ff1916838001178555620001fe565b82800160010185558215620001fe579182015b82811115620001fd578251825591602001919060010190620001e0565b5b5090506200020d919062000211565b5090565b5b808211156200022c57600081600090555060010162000212565b5090565b600080fd5b600073ffffffffffffffffffffffffffffffffffffffff82169050919050565b6000620002628262000235565b9050919050565b620002748162000255565b81146200028057600080fd5b50565b600081519050620002948162000269565b92915050565b600060208284031215620002b357620002b262000230565b5b6000620002c38482850162000283565b91505092915050565b7f4e487b7100000000000000000000000000000000000000000000000000000000600052602260045260246000fd5b600060028204905060018216806200031457607f821691505b602082108114156200032b576200032a620002cc565b5b50919050565b612d9d80620003416000396000f3fe608060405234801561001057600080fd5b506004361061010b5760003560e01c80636352211e116100a257806395d89b411161007157806395d89b41146102de578063a22cb465146102fc578063b88d4fde14610318578063c87b56dd14610334578063e985e9c5146103645761010b565b80636352211e1461023057806370a08231146102605780637da0a87714610290578063849c9b45146102ae5761010b565b806323b872dd116100de57806323b872dd146101aa57806342842e0e146101c6578063486ff0cd146101e2578063572b6c05146102005761010b565b806301ffc9a71461011057806306fdde0314610140578063081812fc1461015e578063095ea7b31461018e575b600080fd5b61012a60048036038101906101259190611aff565b610394565b6040516101379190611b47565b60405180910390f35b610148610476565b6040516101559190611bfb565b60405180910390f35b61017860048036038101906101739190611c53565b610508565b6040516101859190611cc1565b60405180910390f35b6101a860048036038101906101a39190611d08565b61058d565b005b6101c460048036038101906101bf9190611d48565b6106a5565b005b6101e060048036038101906101db9190611d48565b610705565b005b6101ea610725565b6040516101f79190611bfb565b60405180910390f35b61021a60048036038101906102159190611d9b565b6107b3565b6040516102279190611b47565b60405180910390f35b61024a60048036038101906102459190611c53565b61080c565b6040516102579190611cc1565b60405180910390f35b61027a60048036038101906102759190611d9b565b6108be565b6040516102879190611dd7565b60405180910390f35b610298610976565b6040516102a59190611cc1565b60405180910390f35b6102c860048036038101906102c39190611f27565b61099f565b6040516102d59190611dd7565b60405180910390f35b6102e66109d7565b6040516102f39190611bfb565b60405180910390f35b61031660048036038101906103119190611faf565b610a69565b005b610332600480360381019061032d9190612090565b610a7f565b005b61034e60048036038101906103499190611c53565b610ae1565b60405161035b9190611bfb565b60405180910390f35b61037e60048036038101906103799190612113565b610c33565b60405161038b9190611b47565b60405180910390f35b60007f80ac58cd000000000000000000000000000000000000000000000000000000007bffffffffffffffffffffffffffffffffffffffffffffffffffffffff1916827bffffffffffffffffffffffffffffffffffffffffffffffffffffffff1916148061045f57507f5b5e139f000000000000000000000000000000000000000000000000000000007bffffffffffffffffffffffffffffffffffffffffffffffffffffffff1916827bffffffffffffffffffffffffffffffffffffffffffffffffffffffff1916145b8061046f575061046e82610cc7565b5b9050919050565b60606001805461048590612182565b80601f01602080910402602001604051908101604052809291908181526020018280546104b190612182565b80156104fe5780601f106104d3576101008083540402835291602001916104fe565b820191906000526020600020905b8154815290600101906020018083116104e157829003601f168201915b5050505050905090565b600061051382610d31565b610552576040517f08c379a000000000000000000000000000000000000000000000000000000000815260040161054990612226565b60405180910390fd5b6005600083815260200190815260200160002060009054906101000a900473ffffffffffffffffffffffffffffffffffffffff169050919050565b60006105988261080c565b90508073ffffffffffffffffffffffffffffffffffffffff168373ffffffffffffffffffffffffffffffffffffffff161415610609576040517f08c379a0000000000000000000000000000000000000000000000000000000008152600401610600906122b8565b60405180910390fd5b8073ffffffffffffffffffffffffffffffffffffffff16610628610d9d565b73ffffffffffffffffffffffffffffffffffffffff161480610657575061065681610651610d9d565b610c33565b5b610696576040517f08c379a000000000000000000000000000000000000000000000000000000000815260040161068d9061234a565b60405180910390fd5b6106a08383610dac565b505050565b6106b66106b0610d9d565b82610e65565b6106f5576040517f08c379a00000000000000000000000000000000000000000000000000000000081526004016106ec906123dc565b60405180910390fd5b610700838383610f43565b505050565b61072083838360405180602001604052806000815250610a7f565b505050565b6009805461073290612182565b80601f016020809104026020016040519081016040528092919081815260200182805461075e90612182565b80156107ab5780601f10610780576101008083540402835291602001916107ab565b820191906000526020600020905b81548152906001019060200180831161078e57829003601f168201915b505050505081565b60008060009054906101000a900473ffffffffffffffffffffffffffffffffffffffff1673ffffffffffffffffffffffffffffffffffffffff168273ffffffffffffffffffffffffffffffffffffffff16149050919050565b6000806003600084815260200190815260200160002060009054906101000a900473ffffffffffffffffffffffffffffffffffffffff169050600073ffffffffffffffffffffffffffffffffffffffff168173ffffffffffffffffffffffffffffffffffffffff1614156108b5576040517f08c379a00000000000000000000000000000000000000000000000000000000081526004016108ac9061246e565b60405180910390fd5b80915050919050565b60008073ffffffffffffffffffffffffffffffffffffffff168273ffffffffffffffffffffffffffffffffffffffff16141561092f576040517f08c379a000000000000000000000000000000000000000000000000000000000815260040161092690612500565b60405180910390fd5b600460008373ffffffffffffffffffffffffffffffffffffffff1673ffffffffffffffffffffffffffffffffffffffff168152602001908152602001600020549050919050565b60008060009054906101000a900473ffffffffffffffffffffffffffffffffffffffff16905090565b60006109ab60086111aa565b60006109b760086111c0565b90506109c384826111ce565b6109cd81846113a8565b8091505092915050565b6060600280546109e690612182565b80601f0160208091040260200160405190810160405280929190818152602001828054610a1290612182565b8015610a5f5780601f10610a3457610100808354040283529160200191610a5f565b820191906000526020600020905b815481529060010190602001808311610a4257829003601f168201915b5050505050905090565b610a7b610a74610d9d565b838361141c565b5050565b610a90610a8a610d9d565b83610e65565b610acf576040517f08c379a0000000000000000000000000000000000000000000000000000000008152600401610ac6906123dc565b60405180910390fd5b610adb84848484611589565b50505050565b6060610aec82610d31565b610b2b576040517f08c379a0000000000000000000000000000000000000000000000000000000008152600401610b2290612592565b60405180910390fd5b6000600760008481526020019081526020016000208054610b4b90612182565b80601f0160208091040260200160405190810160405280929190818152602001828054610b7790612182565b8015610bc45780601f10610b9957610100808354040283529160200191610bc4565b820191906000526020600020905b815481529060010190602001808311610ba757829003601f168201915b505050505090506000610bd56115e5565b9050600081511415610beb578192505050610c2e565b600082511115610c20578082604051602001610c089291906125ee565b60405160208183030381529060405292505050610c2e565b610c29846115fc565b925050505b919050565b6000600660008473ffffffffffffffffffffffffffffffffffffffff1673ffffffffffffffffffffffffffffffffffffffff16815260200190815260200160002060008373ffffffffffffffffffffffffffffffffffffffff1673ffffffffffffffffffffffffffffffffffffffff16815260200190815260200160002060009054906101000a900460ff16905092915050565b60007f01ffc9a7000000000000000000000000000000000000000000000000000000007bffffffffffffffffffffffffffffffffffffffffffffffffffffffff1916827bffffffffffffffffffffffffffffffffffffffffffffffffffffffff1916149050919050565b60008073ffffffffffffffffffffffffffffffffffffffff166003600084815260200190815260200160002060009054906101000a900473ffffffffffffffffffffffffffffffffffffffff1673ffffffffffffffffffffffffffffffffffffffff1614159050919050565b6000610da76116a3565b905090565b816005600083815260200190815260200160002060006101000a81548173ffffffffffffffffffffffffffffffffffffffff021916908373ffffffffffffffffffffffffffffffffffffffff160217905550808273ffffffffffffffffffffffffffffffffffffffff16610e1f8361080c565b73ffffffffffffffffffffffffffffffffffffffff167f8c5be1e5ebec7d5bd14f71427d1e84f3dd0314c0f7b2291e5b200ac8c7c3b92560405160405180910390a45050565b6000610e7082610d31565b610eaf576040517f08c379a0000000000000000000000000000000000000000000000000000000008152600401610ea690612684565b60405180910390fd5b6000610eba8361080c565b90508073ffffffffffffffffffffffffffffffffffffffff168473ffffffffffffffffffffffffffffffffffffffff161480610f2957508373ffffffffffffffffffffffffffffffffffffffff16610f1184610508565b73ffffffffffffffffffffffffffffffffffffffff16145b80610f3a5750610f398185610c33565b5b91505092915050565b8273ffffffffffffffffffffffffffffffffffffffff16610f638261080c565b73ffffffffffffffffffffffffffffffffffffffff1614610fb9576040517f08c379a0000000000000000000000000000000000000000000000000000000008152600401610fb090612716565b60405180910390fd5b600073ffffffffffffffffffffffffffffffffffffffff168273ffffffffffffffffffffffffffffffffffffffff161415611029576040517f08c379a0000000000000000000000000000000000000000000000000000000008152600401611020906127a8565b60405180910390fd5b6110348383836116da565b61103f600082610dac565b6001600460008573ffffffffffffffffffffffffffffffffffffffff1673ffffffffffffffffffffffffffffffffffffffff168152602001908152602001600020600082825461108f91906127f7565b925050819055506001600460008473ffffffffffffffffffffffffffffffffffffffff1673ffffffffffffffffffffffffffffffffffffffff16815260200190815260200160002060008282546110e6919061282b565b92505081905550816003600083815260200190815260200160002060006101000a81548173ffffffffffffffffffffffffffffffffffffffff021916908373ffffffffffffffffffffffffffffffffffffffff160217905550808273ffffffffffffffffffffffffffffffffffffffff168473ffffffffffffffffffffffffffffffffffffffff167fddf252ad1be2c89b69c2b068fc378daa952ba7f163c4a11628f55a4df523b3ef60405160405180910390a46111a58383836116df565b505050565b6001816000016000828254019250508190555050565b600081600001549050919050565b600073ffffffffffffffffffffffffffffffffffffffff168273ffffffffffffffffffffffffffffffffffffffff16141561123e576040517f08c379a0000000000000000000000000000000000000000000000000000000008152600401611235906128cd565b60405180910390fd5b61124781610d31565b15611287576040517f08c379a000000000000000000000000000000000000000000000000000000000815260040161127e90612939565b60405180910390fd5b611293600083836116da565b6001600460008473ffffffffffffffffffffffffffffffffffffffff1673ffffffffffffffffffffffffffffffffffffffff16815260200190815260200160002060008282546112e3919061282b565b92505081905550816003600083815260200190815260200160002060006101000a81548173ffffffffffffffffffffffffffffffffffffffff021916908373ffffffffffffffffffffffffffffffffffffffff160217905550808273ffffffffffffffffffffffffffffffffffffffff16600073ffffffffffffffffffffffffffffffffffffffff167fddf252ad1be2c89b69c2b068fc378daa952ba7f163c4a11628f55a4df523b3ef60405160405180910390a46113a4600083836116df565b5050565b6113b182610d31565b6113f0576040517f08c379a00000000000000000000000000000000000000000000000000000000081526004016113e7906129cb565b60405180910390fd5b806007600084815260200190815260200160002090805190602001906114179291906119f0565b505050565b8173ffffffffffffffffffffffffffffffffffffffff168373ffffffffffffffffffffffffffffffffffffffff16141561148b576040517f08c379a000000000000000000000000000000000000000000000000000000000815260040161148290612a37565b60405180910390fd5b80600660008573ffffffffffffffffffffffffffffffffffffffff1673ffffffffffffffffffffffffffffffffffffffff16815260200190815260200160002060008473ffffffffffffffffffffffffffffffffffffffff1673ffffffffffffffffffffffffffffffffffffffff16815260200190815260200160002060006101000a81548160ff0219169083151502179055508173ffffffffffffffffffffffffffffffffffffffff168373ffffffffffffffffffffffffffffffffffffffff167f17307eab39ab6107e8899845ad3d59bd9653f200f220920489ca2b5937696c318360405161157c9190611b47565b60405180910390a3505050565b611594848484610f43565b6115a0848484846116e4565b6115df576040517f08c379a00000000000000000000000000000000000000000000000000000000081526004016115d690612ac9565b60405180910390fd5b50505050565b606060405180602001604052806000815250905090565b606061160782610d31565b611646576040517f08c379a000000000000000000000000000000000000000000000000000000000815260040161163d90612b5b565b60405180910390fd5b60006116506115e5565b90506000815111611670576040518060200160405280600081525061169b565b8061167a8461186c565b60405160200161168b9291906125ee565b6040516020818303038152906040525b915050919050565b600060146000369050101580156116bf57506116be336107b3565b5b156116d357601436033560601c90506116d7565b3390505b90565b505050565b505050565b60006117058473ffffffffffffffffffffffffffffffffffffffff166119cd565b1561185f578373ffffffffffffffffffffffffffffffffffffffff1663150b7a0261172e610d9d565b8786866040518563ffffffff1660e01b81526004016117509493929190612bd0565b6020604051808303816000875af192505050801561178c57506040513d601f19601f820116820180604052508101906117899190612c31565b60015b61180f573d80600081146117bc576040519150601f19603f3d011682016040523d82523d6000602084013e6117c1565b606091505b50600081511415611807576040517f08c379a00000000000000000000000000000000000000000000000000000000081526004016117fe90612ac9565b60405180910390fd5b805181602001fd5b63150b7a0260e01b7bffffffffffffffffffffffffffffffffffffffffffffffffffffffff1916817bffffffffffffffffffffffffffffffffffffffffffffffffffffffff191614915050611864565b600190505b949350505050565b606060008214156118b4576040518060400160405280600181526020017f300000000000000000000000000000000000000000000000000000000000000081525090506119c8565b600082905060005b600082146118e65780806118cf90612c5e565b915050600a826118df9190612cd6565b91506118bc565b60008167ffffffffffffffff81111561190257611901611dfc565b5b6040519080825280601f01601f1916602001820160405280156119345781602001600182028036833780820191505090505b5090505b600085146119c15760018261194d91906127f7565b9150600a8561195c9190612d07565b6030611968919061282b565b60f81b81838151811061197e5761197d612d38565b5b60200101907effffffffffffffffffffffffffffffffffffffffffffffffffffffffffffff1916908160001a905350600a856119ba9190612cd6565b9450611938565b8093505050505b919050565b6000808273ffffffffffffffffffffffffffffffffffffffff163b119050919050565b8280546119fc90612182565b90600052602060002090601f016020900481019282611a1e5760008555611a65565b82601f10611a3757805160ff1916838001178555611a65565b82800160010185558215611a65579182015b82811115611a64578251825591602001919060010190611a49565b5b509050611a729190611a76565b5090565b5b80821115611a8f576000816000905550600101611a77565b5090565b6000604051905090565b600080fd5b600080fd5b60007fffffffff0000000000000000000000000000000000000000000000000000000082169050919050565b611adc81611aa7565b8114611ae757600080fd5b50565b600081359050611af981611ad3565b92915050565b600060208284031215611b1557611b14611a9d565b5b6000611b2384828501611aea565b91505092915050565b60008115159050919050565b611b4181611b2c565b82525050565b6000602082019050611b5c6000830184611b38565b92915050565b600081519050919050565b600082825260208201905092915050565b60005b83811015611b9c578082015181840152602081019050611b81565b83811115611bab576000848401525b50505050565b6000601f19601f8301169050919050565b6000611bcd82611b62565b611bd78185611b6d565b9350611be7818560208601611b7e565b611bf081611bb1565b840191505092915050565b60006020820190508181036000830152611c158184611bc2565b905092915050565b6000819050919050565b611c3081611c1d565b8114611c3b57600080fd5b50565b600081359050611c4d81611c27565b92915050565b600060208284031215611c6957611c68611a9d565b5b6000611c7784828501611c3e565b91505092915050565b600073ffffffffffffffffffffffffffffffffffffffff82169050919050565b6000611cab82611c80565b9050919050565b611cbb81611ca0565b82525050565b6000602082019050611cd66000830184611cb2565b92915050565b611ce581611ca0565b8114611cf057600080fd5b50565b600081359050611d0281611cdc565b92915050565b60008060408385031215611d1f57611d1e611a9d565b5b6000611d2d85828601611cf3565b9250506020611d3e85828601611c3e565b9150509250929050565b600080600060608486031215611d6157611d60611a9d565b5b6000611d6f86828701611cf3565b9350506020611d8086828701611cf3565b9250506040611d9186828701611c3e565b9150509250925092565b600060208284031215611db157611db0611a9d565b5b6000611dbf84828501611cf3565b91505092915050565b611dd181611c1d565b82525050565b6000602082019050611dec6000830184611dc8565b92915050565b600080fd5b600080fd5b7f4e487b7100000000000000000000000000000000000000000000000000000000600052604160045260246000fd5b611e3482611bb1565b810181811067ffffffffffffffff82111715611e5357611e52611dfc565b5b80604052505050565b6000611e66611a93565b9050611e728282611e2b565b919050565b600067ffffffffffffffff821115611e9257611e91611dfc565b5b611e9b82611bb1565b9050602081019050919050565b82818337600083830152505050565b6000611eca611ec584611e77565b611e5c565b905082815260208101848484011115611ee657611ee5611df7565b5b611ef1848285611ea8565b509392505050565b600082601f830112611f0e57611f0d611df2565b5b8135611f1e848260208601611eb7565b91505092915050565b60008060408385031215611f3e57611f3d611a9d565b5b6000611f4c85828601611cf3565b925050602083013567ffffffffffffffff811115611f6d57611f6c611aa2565b5b611f7985828601611ef9565b9150509250929050565b611f8c81611b2c565b8114611f9757600080fd5b50565b600081359050611fa981611f83565b92915050565b60008060408385031215611fc657611fc5611a9d565b5b6000611fd485828601611cf3565b9250506020611fe585828601611f9a565b9150509250929050565b600067ffffffffffffffff82111561200a57612009611dfc565b5b61201382611bb1565b9050602081019050919050565b600061203361202e84611fef565b611e5c565b90508281526020810184848401111561204f5761204e611df7565b5b61205a848285611ea8565b509392505050565b600082601f83011261207757612076611df2565b5b8135612087848260208601612020565b91505092915050565b600080600080608085870312156120aa576120a9611a9d565b5b60006120b887828801611cf3565b94505060206120c987828801611cf3565b93505060406120da87828801611c3e565b925050606085013567ffffffffffffffff8111156120fb576120fa611aa2565b5b61210787828801612062565b91505092959194509250565b6000806040838503121561212a57612129611a9d565b5b600061213885828601611cf3565b925050602061214985828601611cf3565b9150509250929050565b7f4e487b7100000000000000000000000000000000000000000000000000000000600052602260045260246000fd5b6000600282049050600182168061219a57607f821691505b602082108114156121ae576121ad612153565b5b50919050565b7f4552433732313a20617070726f76656420717565727920666f72206e6f6e657860008201527f697374656e7420746f6b656e0000000000000000000000000000000000000000602082015250565b6000612210602c83611b6d565b915061221b826121b4565b604082019050919050565b6000602082019050818103600083015261223f81612203565b9050919050565b7f4552433732313a20617070726f76616c20746f2063757272656e74206f776e6560008201527f7200000000000000000000000000000000000000000000000000000000000000602082015250565b60006122a2602183611b6d565b91506122ad82612246565b604082019050919050565b600060208201905081810360008301526122d181612295565b9050919050565b7f4552433732313a20617070726f76652063616c6c6572206973206e6f74206f7760008201527f6e6572206e6f7220617070726f76656420666f7220616c6c0000000000000000602082015250565b6000612334603883611b6d565b915061233f826122d8565b604082019050919050565b6000602082019050818103600083015261236381612327565b9050919050565b7f4552433732313a207472616e736665722063616c6c6572206973206e6f74206f60008201527f776e6572206e6f7220617070726f766564000000000000000000000000000000602082015250565b60006123c6603183611b6d565b91506123d18261236a565b604082019050919050565b600060208201905081810360008301526123f5816123b9565b9050919050565b7f4552433732313a206f776e657220717565727920666f72206e6f6e657869737460008201527f656e7420746f6b656e0000000000000000000000000000000000000000000000602082015250565b6000612458602983611b6d565b9150612463826123fc565b604082019050919050565b600060208201905081810360008301526124878161244b565b9050919050565b7f4552433732313a2062616c616e636520717565727920666f7220746865207a6560008201527f726f206164647265737300000000000000000000000000000000000000000000602082015250565b60006124ea602a83611b6d565b91506124f58261248e565b604082019050919050565b60006020820190508181036000830152612519816124dd565b9050919050565b7f45524337323155524953746f726167653a2055524920717565727920666f722060008201527f6e6f6e6578697374656e7420746f6b656e000000000000000000000000000000602082015250565b600061257c603183611b6d565b915061258782612520565b604082019050919050565b600060208201905081810360008301526125ab8161256f565b9050919050565b600081905092915050565b60006125c882611b62565b6125d281856125b2565b93506125e2818560208601611b7e565b80840191505092915050565b60006125fa82856125bd565b915061260682846125bd565b91508190509392505050565b7f4552433732313a206f70657261746f7220717565727920666f72206e6f6e657860008201527f697374656e7420746f6b656e0000000000000000000000000000000000000000602082015250565b600061266e602c83611b6d565b915061267982612612565b604082019050919050565b6000602082019050818103600083015261269d81612661565b9050919050565b7f4552433732313a207472616e736665722066726f6d20696e636f72726563742060008201527f6f776e6572000000000000000000000000000000000000000000000000000000602082015250565b6000612700602583611b6d565b915061270b826126a4565b604082019050919050565b6000602082019050818103600083015261272f816126f3565b9050919050565b7f4552433732313a207472616e7366657220746f20746865207a65726f2061646460008201527f7265737300000000000000000000000000000000000000000000000000000000602082015250565b6000612792602483611b6d565b915061279d82612736565b604082019050919050565b600060208201905081810360008301526127c181612785565b9050919050565b7f4e487b7100000000000000000000000000000000000000000000000000000000600052601160045260246000fd5b600061280282611c1d565b915061280d83611c1d565b9250828210156128205761281f6127c8565b5b828203905092915050565b600061283682611c1d565b915061284183611c1d565b9250827fffffffffffffffffffffffffffffffffffffffffffffffffffffffffffffffff03821115612876576128756127c8565b5b828201905092915050565b7f4552433732313a206d696e7420746f20746865207a65726f2061646472657373600082015250565b60006128b7602083611b6d565b91506128c282612881565b602082019050919050565b600060208201905081810360008301526128e6816128aa565b9050919050565b7f4552433732313a20746f6b656e20616c7265616479206d696e74656400000000600082015250565b6000612923601c83611b6d565b915061292e826128ed565b602082019050919050565b6000602082019050818103600083015261295281612916565b9050919050565b7f45524337323155524953746f726167653a2055524920736574206f66206e6f6e60008201527f6578697374656e7420746f6b656e000000000000000000000000000000000000602082015250565b60006129b5602e83611b6d565b91506129c082612959565b604082019050919050565b600060208201905081810360008301526129e4816129a8565b9050919050565b7f4552433732313a20617070726f766520746f2063616c6c657200000000000000600082015250565b6000612a21601983611b6d565b9150612a2c826129eb565b602082019050919050565b60006020820190508181036000830152612a5081612a14565b9050919050565b7f4552433732313a207472616e7366657220746f206e6f6e20455243373231526560008201527f63656976657220696d706c656d656e7465720000000000000000000000000000602082015250565b6000612ab3603283611b6d565b9150612abe82612a57565b604082019050919050565b60006020820190508181036000830152612ae281612aa6565b9050919050565b7f4552433732314d657461646174613a2055524920717565727920666f72206e6f60008201527f6e6578697374656e7420746f6b656e0000000000000000000000000000000000602082015250565b6000612b45602f83611b6d565b9150612b5082612ae9565b604082019050919050565b60006020820190508181036000830152612b7481612b38565b9050919050565b600081519050919050565b600082825260208201905092915050565b6000612ba282612b7b565b612bac8185612b86565b9350612bbc818560208601611b7e565b612bc581611bb1565b840191505092915050565b6000608082019050612be56000830187611cb2565b612bf26020830186611cb2565b612bff6040830185611dc8565b8181036060830152612c118184612b97565b905095945050505050565b600081519050612c2b81611ad3565b92915050565b600060208284031215612c4757612c46611a9d565b5b6000612c5584828501612c1c565b91505092915050565b6000612c6982611c1d565b91507fffffffffffffffffffffffffffffffffffffffffffffffffffffffffffffffff821415612c9c57612c9b6127c8565b5b600182019050919050565b7f4e487b7100000000000000000000000000000000000000000000000000000000600052601260045260246000fd5b6000612ce182611c1d565b9150612cec83611c1d565b925082612cfc57612cfb612ca7565b5b828204905092915050565b6000612d1282611c1d565b9150612d1d83611c1d565b925082612d2d57612d2c612ca7565b5b828206905092915050565b7f4e487b7100000000000000000000000000000000000000000000000000000000600052603260045260246000fdfea2646970667358221220177af96b61d0aa4ef50274252d68c7f074e2429baa70222516d3de4e8b66782b64736f6c634300080a0033",
  "immutableReferences": {},
  "source": "// SPDX-License-Identifier: MIT \npragma solidity ^0.8.10;  \n\nimport \"../node_modules/@openzeppelin/contracts/token/ERC721/extensions/ERC721URIStorage.sol\";\nimport \"@openzeppelin/contracts/utils/Counters.sol\";\nimport \"@opengsn/contracts/src/BaseRelayRecipient.sol\";\n\n\ncontract Level1Completion is BaseRelayRecipient, ERC721URIStorage {  \n\n    using Counters for Counters.Counter;\n    Counters.Counter private _tokenIds; \n\n  \n        constructor(address _trustedForwarder) ERC721(\"L1Completion\",\"L1C\") {\n        _setTrustedForwarder(_trustedForwarder);\n    } \n\n\n    string public override versionRecipient = \"2.2.0\";\n\n    function awardCertificate(address learner, string memory Level1PoapURI) public returns (uint256) {\n        _tokenIds.increment();\n\n        uint256 newItemId = _tokenIds.current();\n        _mint(learner, newItemId);\n        _setTokenURI(newItemId, Level1PoapURI);\n\n        return newItemId;\n    }\n\n    //override functions\n\n    function _msgSender() internal view override(Context, BaseRelayRecipient) returns (address sender) {\n        sender = BaseRelayRecipient._msgSender();\n  }\n\n    function _msgData() internal view override(Context, BaseRelayRecipient) returns (bytes memory) {\n        return BaseRelayRecipient._msgData();\n  }\n\n}\n",
  "sourcePath": "/Users/peter/Development/Level1DAO/react-app-gasless/contracts/Level1Completion.sol",
  "compiler": {
    "name": "solc",
    "version": "0.8.10+commit.fc410830.Emscripten.clang"
  },
  "schemaVersion": "3.4.3",
  "updatedAt": "2022-02-21T17:38:25.688Z",
  "networkType": "ethereum",
  "devdoc": {
    "kind": "dev",
    "methods": {
      "approve(address,uint256)": {
        "details": "See {IERC721-approve}."
      },
      "balanceOf(address)": {
        "details": "See {IERC721-balanceOf}."
      },
      "getApproved(uint256)": {
        "details": "See {IERC721-getApproved}."
      },
      "isApprovedForAll(address,address)": {
        "details": "See {IERC721-isApprovedForAll}."
      },
      "name()": {
        "details": "See {IERC721Metadata-name}."
      },
      "ownerOf(uint256)": {
        "details": "See {IERC721-ownerOf}."
      },
      "safeTransferFrom(address,address,uint256)": {
        "details": "See {IERC721-safeTransferFrom}."
      },
      "safeTransferFrom(address,address,uint256,bytes)": {
        "details": "See {IERC721-safeTransferFrom}."
      },
      "setApprovalForAll(address,bool)": {
        "details": "See {IERC721-setApprovalForAll}."
      },
      "supportsInterface(bytes4)": {
        "details": "See {IERC165-supportsInterface}."
      },
      "symbol()": {
        "details": "See {IERC721Metadata-symbol}."
      },
      "tokenURI(uint256)": {
        "details": "See {IERC721Metadata-tokenURI}."
      },
      "transferFrom(address,address,uint256)": {
        "details": "See {IERC721-transferFrom}."
      }
    },
    "version": 1
  },
  "userdoc": {
    "kind": "user",
    "methods": {
      "isTrustedForwarder(address)": {
        "notice": "return if the forwarder is trusted to forward relayed transactions to us. the forwarder is required to verify the sender's signature, and verify the call is not a replay."
      }
    },
    "version": 1
  }
}